:102ABF0052454400475245454E00424C554500553E
:102ACF0053422044454255470055534220524541F9
:102ADF00440010C4EA611A03530069006C006900D6
:102AEF0063006F006E0020004C00610062007300F5
:102AFF0010035500530042002000410050004900D0
:0F2B0F000A0343003500310046000F800100012A
:102E4300012B00013200013700013900013A000172
:102E53003800012F0002300000043300000001019C
:082E63002CAA012D55012EFFE0
:101C950012298D20B603021D731222817F057E0055
:101CA500122CE0122FEF7F327E00122EBE74FFFF42
:101CB500FE122DE1122FCA122EBA7F007EF8122DC8
:101CC500E17BFF7A2A79BFE4F518F519F51AF51BBA
:101CD50074FFF51CF51D7D647C001223D3122FCAF9
:101CE500122EBA7FE07E07122DE17BFF7A2A79C397
:101CF500E4F518F519F51AF51B74FFF51CF51D7DAE
:101D0500647C001223D3122FCA122EBA7F1F7E00C5
:101D1500122DE17BFF7A2A79C9E4F518F519F51A30
:101D2500F51B74FFF51CF51D7D647C001223D31291
:101D35002FCA122EBA74FFFFFE122DE1122FCA12FE
:101D45002EBAE4FFFE122DE1122FCA122EBA122668
:101D5500A8122FCA122EBAE4F509AF09121F0112F3
:0E1D65002FCA122EBA0509E509C3940140ECFD
:011D7300224D
:042EBA007FC87E004F
:102EBE00E4FDFCC3ED9FEC9E5014E4FBFA0BBB004B
:0E2ECE00010AEBF44A70F60DBD00010C80E520
:012EDC0022D3
:042CE0008E0A8F0BBE
:102CE400E4F50CF50D30B720E4FFFEC3EF950BEED1
:102CF400950A501EE4FDFC0DBD00010CEDF44C7072
:102D0400F60FBF00010E80E3122FCA7F147E00125B
:102D14002EBE050DE50D7002050CC39464E50C94FC
:032D24000040C2AA
:012D27002289
:102FCA0030B60512069E80F87FF47E01122EBE30BE
:032FDA00B6FD221F
:10069E0078127C007D007BFF7A2B791D7E007F0116
:1006AE001211D8E5327003020869750E01E50E25A8
:1006BE00E025E02458F582E43402F583E07029E564
:1006CE000E25E025E02459F582E43402F583E0FEA0
:1006DE00E50E25E025E0245AF582E43402F583E0A8
:1006EE00FDEDFF123025803BE50E25E025E0245878
:1006FE00F582E43402F583E064017027E50E25E00F
:10070E0025E02459F582E43402F583E0FEE50E255A
:10071E00E025E0245AF582E43402F583E0FDEDFF96
:10072E00122FE5050EE50EC3941040810000000067
:10073E0000000000000000000000000000000000AB
:10074E007BFF7A2A79CEE4F518F519F51AF51B74A4
:10075E00FFF51CF51DE4FDFC1223D390025BE02097
:10076E00E00302084F750E01E50E25E025E0245842
:10077E00F582E43402F583E07054E50E25E025E0C1
:10078E002459F582E43402F583E0FEE50E25E025DA
:10079E00E0245AF582E43402F583E0FDEDFFE50E28
:1007AE0025E025E0245BF582E43402F583E075F064
:1007BE0024A4FDACF0E50E75F011A4FBAAF075199A
:1007CE0007751AE0E4F51BF51C12246E8067E50E22
:1007DE0025E025E02458F582E43402F583E0640137
:1007EE007053E50E25E025E02459F582E43402F538
:1007FE0083E0FEE50E25E025E0245AF582E434027E
:10080E00F583E0FDEDFFE50E25E025E0245BF582A6
:10081E00E43402F583E075F024A4FDACF0E50E752A
:10082E00F011A4FBAAF0751900751A1F74FFF51BC1
:10083E00F51C12246E050EE50EC39410500302072C
:10084E007600000000000000000000000000000024
:10085E000000000000E4F5320206B1E53870030234
:10086E000925E4F50EE50EC394404003020914C2B7
:10087E00A0D2B17458250EF582E43402F583E0FF60
:10088E007459250EF582E43402F583E0FD12302F03
:10089E00D2A07458250EF582E43402F583E0FF05EC
:1008AE0031E531AC3070020530142400F58274004D
:1008BE003CF583EFF07459250EF582E43402F5838E
:1008CE00E0FF0531E531AC3070020530142400F53F
:1008DE008274003CF583EFF0E4B53123E530B402C9
:1008EE001E78331212F21227B1900000E52FF07F1E
:1008FE00007E007D007C001227B1E4F530F5310555
:10090E000E050E020873E4F538FB7A0079127D01AC
:10091E00FC121A76020869E52B7003020A1D90027A
:10092E005BE070030209D9750E04E50EC3942440F2
:10093E0003020A0CC2A0D2B17458250EF582E4341B
:10094E0002F583E0FF7459250EF582E43402F58337
:10095E00E0FD12302FD2A07458250EF582E4340239
:10096E00F583E0FF0531E531AC307002053014241B
:10097E0000F58274003CF583EFF07459250EF58274
:10098E00E43402F583E0FF0531E531AC3070020549
:10099E0030142400F58274003CF583EFF0E4B53199
:1009AE0023E530B4021E78331212F21227B19000F2
:1009BE0000E52FF07F007E007D007C001227B1E461
:1009CE00F530F531050E050E020938750E04E50EEB
:1009DE00C394245029C2A0D2B17458250EF582E4D6
:1009EE003402F583E0FF7459250EF582E43402F5E6
:1009FE0083E0FD12302FD2A0050E050E80D0E4F557
:100A0E002BFB7A0079127D01FC121A76020925E57C
:100A1E003A7003020ACE750E04E50EC39424400309
:100A2E00020ABD7458250EF582E43402F583E07097
:100A3E00217459250EF582E43402F583E0FE745AD2
:100A4E00250EF582E43402F583E0FDEDFF1230252C
:100A5E0080547458250EF582E43402F583E0B40117
:100A6E00217459250EF582E43402F583E0FE745AA2
:100A7E00250EF582E43402F583E0FDEDFF122FE53D
:100A8E0080247458250EF582E43402F583E0641058
:100A9E0070140000000000000000000000000000C4
:100AAE000000000000007404250EF50E020A27E473
:100ABE00F53AFB7A0079127D01FC121A76020A1DB4
:100ACE00E5377003020C01E4F50E7400250EF58275
:100ADE00E43402F583E4F0050EE50EB418EC900252
:100AEE005FE025E0F51190025DE0FEA3E0FDEEF57E
:100AFE000FEDF51090025CE064017034AF10AE0F94
:100B0E00123025E4F50EE50EC395115023122F8BEE
:100B1E007400250EF582E43402F583E4F0740125A9
:100B2E000EF582E43402F583EFF0050E050E80D645
:100B3E00E4F5377B017A027900E511FD7C00121A8B
:100B4E00767F647E00122EBE7BFF7A2A79D8E4F57A
:100B5E0018F519F51AF51B74FFF51CF51DE4FDFCCF
:100B6E001223D390025BE020E003020ACE900260D3
:100B7E00E075F024A4FDACF0751907751AE0E4F5E4
:100B8E001BF51C7B11FAAF10AE0F12246EE4F50E9E
:100B9E00E50EC395114003020ACE900260E075F097
:100BAE0024A4FDACF0C004C005E50EC3132402FF5F
:100BBE00E433FE7C007D11121244AA06AB077400CA
:100BCE00250EF582E43402F583E0FE7401250EF560
:100BDE0082E43402F583E0FDEDFF751900751A1FEE
:100BEE0074FFF51BF51CD005D00412246E050E05FE
:100BFE000E809DE5396039E4F50E7418250EF582E8
:100C0E00E43402F583E4F0050EE50EB440EC9002F8
:100C1E00187401F0A37440F0E4A3F0A374F0F0E4B0
:100C2E00F5397B017A0279187D40FC121A7680C361
:010C3E002293
:1000460053D9BF75B283E4F5B943B980FF0FBFFF3B
:10005600FC43B9C0E5B930E5FBE4F5A943EF027509
:10006600F1FF75A4FF75A5FF75F2FF75A6FF75AEC6
:10007600FF75F4FF43A717C286C28743E10243E236
:010086004039
:010087002256
:10298D00120046122DA9902AE1E493FE740193FFE3
:10299D00902AE3E493FC740193FD90020774FFF019
:1029AD00A3742AF0A374FFF0A374FFF0A3742BF0AB
:1029BD00A3740FF0902B19E49390020DF0902B1A45
:1029CD00E49390020EF0902B1BE493FB7401939013
:1029DD00020FCBF0A3EBF07BFF7A2A79E5121825D5
:0C29ED00122F5C75A17075F80F02131218
:03008800022E182D
:03008B00021B87CE
:101B8700C0E0C0F0C083C082C0D075D000C000C024
:0D1B970001C002C003C004C005C006C007A5
:101BA4001230008F08E50830E27C7B017A02795814
:101BB4007D401221D2900258E0FFB52C0FA3E0B56E
:101BC4002D0AA3E0B52E05753201805AEFB52E110A
:101BD400900259E0B52D0AA3E0B52C0575370180B4
:101BE40045900258E0B52D0FA3E0B52C0AA3E0B54B
:101BF4002E05753901802F900258E0FFB52C0FA3F4
:101C0400E0B52E0AA3E0B52D05752B018018EFB5BC
:101C14002E11900259E0B52C0AA3E0B52D05753AB2
:101C2400018003753801E50830E703120088E508F0
:101C340030E603120046E50830E41A154F154FA8A4
:101C44004F760108763F7A007B007C007DEF7E00B2
:101C54007F00122085E50830E51C052F154F154F30
:101C6400A84F760108763F7A007B007C007DEF7EEA
:061C7400007F0012208534
:101C7A00D007D006D005D004D003D002D001D000BE
:0B1C8A00D0D0D082D083D0F0D0E03268
:0C2F75007FFF122F817FFF122F817FFF52
:092F81008FA330FFFDC2FFAFA3D6
:012F8A002224
:0A301A0075A3FF30FFFDC2FFAFA356
:013024002289
:022A5E00AE07C1
:102A6000E4FB122F75122F75C2FAEE4440FF122FAD
:102A700081AF1FAE1EAD1DAC1C78181212CC122FE8
:102A800081AF1FAE1EAD1DAC1C78101212CC122FE0
:102A900081AF1FAE1EAD1DAC1C78081212CC122FD8
:102AA00081AF1F122F817F95122F817FFF122F81FF
:0E2AB000BFFF09AE030BEED3946440EFD2FAE1
:012ABE0022F5
:101FBB00E4FEFA75A90375A23BE4FD7FFF122F81A6
:101FCB000DBD64F7E4F51FF51EF51DF51CFF122A78
:101FDB005EAE070AEAD3940A5003BE01DCE4FAE4CE
:101FEB00F51FF51EF51DF51C7F37122A5EAE070A8D
:101FFB00EAD3946440037F0122BE01E3E4FAF51FA8
:10200B00F51EF51DF51C7F29122A5EAE070AEAD3D1
:10201B00946440037F0122EE70C5EE601FE4FAE486
:10202B00F51FF51EF51DF51C7F01122A5EAE070A82
:10203B00EAD3946440037F0122EE70E3E4F51FF5CD
:10204B001EF51DF51C7F3B122A5EAE07E4F51F75CE
:10205B001E02F51DF51C7F10122A5E75A201E4F518
:02206B00A9FFCB
:01206D002250
:0827B1008F168E158D148C1398
:1027B900E4FA75A903AF16AE15AD14AC1378091276
:1027C90012DF8F1F8E1E8D1D8C1C7F18122A5EAE84
:1027D900070AEAD3940A40037F0122EE70D7C2FAAE
:1027E9007FFF122F817FFE122F81FDFC74002DF5D2
:1027F9008274003CF583E0FF122F810DBD00010CAE
:10280900E4B505E8ECB402E4122F75AE07EE541FE7
:1028190064056003D2FA227FFF122F81EF60F8D29C
:05282900FAE4F5A9FF2F
:01282E002287
:0829F9008F1A8E198D188C173E
:102A0100E4FA75A903AF1AAE19AD18AC177809121B
:102A110012DF8F1F8E1E8D1D8C1C7F11122A5E0AE4
:102A2100EAD3940A40037F0122EF70D9C2FA12302F
:102A31001ABFFEFAE4FDFC12301A74002DF58274FF
:102A4100003CF583EFF00DBD00010CE4B505E8ECA9
:0C2A5100B402E4122F7AD2FAE4F5A9FFD7
:012A5D002256
:102FEF00E4F9121FBBEF600809E9D3940140F32203
:012FFF0022AF
:10008E00F800F80007E007E0001F001FFFFFFFFF6A
:10009E00000000182442424242424242241800000C
:1000AE00000000107010101010101010107C0000C6
:1000BE000000003C4242420404081020427E000030
:1000CE000000003C42420418040202424438000080
:1000DE00000000040C14242444447E04041E00007A
:1000EE000000007E40404058640202424438000046
:1000FE000000001C24404058644242422418000074
:10010E000000007E4444080810101010101000006B
:10011E000000003C4242422418244242423C00006D
:10012E000000001824424242261A0202243800001F
:10013E000000001010182828243C444242E700001A
:10014E00000000F8444444784442424244F800001F
:10015E000000003E42428080808080424438000091
:10016E00000000F8444242424242424244F800003B
:10017E00000000FC424848784848404242FC0000DB
:10018E00000000FC424848784848404040E00000EB
:10019E000000003C44448080808E8444443800003B
:1001AE00000000E7424242427E42424242E70000E5
:1001BE000000007C1010101010101010107C0000A9
:1001CE000000003E0808080808080808080888F01B
:1001DE00000000EE444850705048484444EE000081
:1001EE00000000E0404040404040404042FE0000E1
:1001FE00000000EE6C6C6C6C5454545454D60000D9
:10020E00000000C7626252524A4A4A4646E2000065
:10021E00000000384482828282828282443800004A
:10022E00000000FC424242427C40404040E0000060
:10023E0000000038448282828282B2CA4C380600A4
:10024E00000000FC4242427C4848444442E3000025
:10025E000000003E4242402018040242427C000050
:10026E00000000FE92101010101010101038000038
:10027E00000000E74242424242424242423C0000FB
:10028E00000000E7424244242428281810100000E1
:10029E00000000D692929292AAAA6C4444440000A6
:1002AE00000000E7422424181818242442E7000016
:1002BE00000000EE444428281010101010380000E2
:1002CE000000007E840408081020204242FC00003A
:1002DE00001E1010101010101010101010101E0014
:1002EE0000004040202010101008080404040202F0
:1002FE0000780808080808080808080808087800A0
:10030E00001C2200000000000000000000000000A1
:10031E00000000000000000000000000000000FFD0
:10032E00006010000000000000000000000000004F
:10033E00000000000000003C421E2242423F00002E
:10034E00000000C0404040586442424264580000E1
:10035E00000000000000001C22404040221C000053
:10036E00000000060202021E22424242261B00002C
:10037E00000000000000003C427E4040423C000075
:10038E000000000F1110107E10101010107C0000D5
:10039E00000000000000003E444438403C42423C15
:1003AE00000000C04040405C6242424242E7000012
:1003BE00000000303000007010101010107C000093
:1003CE000000000C0C00001C040404040404447817
:1003DE00000000C04040404E4850684844EE0000C7
:1003EE00000000701010101010101010107C000083
:1003FE0000000000000000FE4949494949ED000097
:10040E0000000000000000DC6242424242E70000B1
:10041E00000000000000003C42424242423C00000C
:10042E0000000000000000D864424242447840E0E0
:10043E00000000000000001E22424242221E02075F
:10044E0000000000000000EE3220202020F8000006
:10045E00000000000000003E42403C02427C0000D2
:10046E00000000000010107C10101010100C000086
:10047E0000000000000000C642424242463B00001F
:10048E0000000000000000E74224242810100000A5
:10049E0000000000000000D79292AAAA4444000077
:1004AE00000000000000006E2418181824760000CA
:1004BE0000000000000000E742242428181010E07D
:1004CE00000000000000007E44081010227E000094
:1004DE0000030404040404080404040404040300D4
:1004EE00080808080808080808080808080808087E
:1004FE000060101010101008101010101010600076
:10050E00304C43000000000000000000000000001E
:10051E0000000000000000000000000000000000CD
:10052E00000000101010101010100000181800001D
:10053E0000123624480000000000000000000000F9
:10054E00000000242424FE484848FE484848000085
:10055E0000001038545450301814145454381010DD
:10056E0000000044A4A8A8A8541A2A2A2A4400006D
:10057E0000000030484848506EA4948889760000E8
:10058E0000606020C00000000000000000000000BD
:10059E0000020408081010101010100808040200C1
:1005AE00004020101008080808080810102040000D
:1005BE00000000001010D63838D6101000000000D1
:1005CE000000000010101010FE101010100000009F
:1005DE00000000000000000000000000606020C06D
:1005EE0000000000000000007F000000000000007E
:1005FE00000000000000000000000000606000002D
:10060E0000000102020404080810102020404000DF
:10061E00000000000000181800000000181800006C
:10062E00000000000000001000000000001010206C
:10063E0000000002040810204020100804020000F0
:10064E00000000000000FE000000FE0000000000A0
:10065E000000004020100804020408102040000092
:10066E000000003C42426202040808001818000014
:10067E0000000038445AAAAAAAAAB442443800007C
:10068E00FFFFFFFFFFFFFFFFFFFFFFFFFFFFFFFF6C
:072EFF00E4FF122F06E4FFBF
:102F0600E4FEEF30E704D2968002C296EF25E0FF9A
:082F1600C297D2970EBE08EA33
:012F1E002290
:0A302500C2A0C2B1122F06D2A022F1
:082FDD007E00123025E4FFFE26
:0A2FE500C2A0D2B1122F06D2A02222
:08302F00122F06AF05022F0667
:10131200D2857FC87E00122EBEC2857F207E031238
:101322002EBED2857F207E03122EBE7F117E00123A
:1013320030257F787E00122EBE7F36122FDD7F3A57
:101342007E001230257F057E00122FE57FB27E00DF
:101352001230257F0C7E00122FE57F0C7E00122FAB
:10136200E5E4FFFE122FE57F337E00122FE57F3387
:101372007E00122FE57FB77E001230257F357E007A
:10138200122FE57FBB7E001230257F1A7E00122FBE
:10139200E57FC07E001230257F2C7E00122FE57F74
:1013A200C27E001230257F017E00122FE57FC37EB0
:1013B200001230257F0B7E00122FE57FC47E0012C3
:1013C20030257F207E00122FE57FC67E0012302559
:1013D2007F0F7E00122FE57FD07E001230257FA482
:1013E2007E00122FE57FA17E00122FE57F217E0075
:1013F2001230257FE0122FDD7F037E00122FE57F62
:10140200077E00122FE57F087E00122FE57F077E00
:1014120000122FE57F157E00122FE57F2A7E001233
:101422002FE57F447E00122FE57F427E00122FE5DA
:101432007F0A7E00122FE57F177E00122FE57F18AC
:101442007E00122FE57F257E00122FE57F277E008A
:10145200122FE57FE1122FDD7F037E00122FE57F41
:10146200087E00122FE57F077E00122FE57F077EA0
:1014720000122FE57F237E00122FE57F2A7E0012C5
:101482002FE57F437E00122FE57F427E00122FE57B
:101492007F097E00122FE57F187E00122FE57F174D
:1014A2007E00122FE57F257E00122FE57F277E002A
:1014B200122FE57F297E001230257F2A122FDD7F31
:1014C200237E00122FE5E4FFFE122FE57FCC7E0083
:1014D200122FE57F2B122FDDE4FFFE122FE57F0195
:1014E2007E00122FE57F3F7E00122FE57F2C7E00CB
:0314F200023025A0
:10206E00154F154FA84F760108763F7A007B007CFE
:07207E00007DEF7E007F00F2
:10208500154F154FA84FA60208A603154F154FA8C3
:102095004FA60408A605154F154FA84FA60608A676
:1020A500077F2A7E00123025A94FE7FF7E00122FF9
:1020B500E5A84FE6FE08E6FF122FE5A84F0808A998
:1020C50000E7FF7E00122FE5A84F0808E6FE08E6A8
:1020D500FF122FE57F2B7E00123025E54F2404F9F2
:1020E500E7FF7E00122FE5E54F2404F8E6FE08E63B
:1020F500FF122FE5E54F2406F9E7FF7E00122FE5D5
:10210500E54F2406F8E6FE08E6FF122FE57F2C7E54
:0B21150000123025E54F2408F54F2292
:042DE1008E0A8F0BBC
:102DE50012206E75A903C2A0D2B1E4FDE4FBFAE599
:102DF5000AFF122F06AF0B122F060BBB00010AEBC1
:102E050064F04A70EA0DBD00010CBC01DFBD40DC79
:022E1500D2A049
:012E17002298
:10228100780E7C007D007BFF7A00798E7E007F10C6
:102291001211D812206E75A903C2A0D2B1E4FDE4D7
:1022A100F50AF50BE4F50CF50DED25E0240EF8E645
:1022B100FEEEFF122F06ED25E0240EF808E6FF12D0
:1022C1002F06050DE50D7002050CC394F0E50C9485
:1022D1000040D6050BE50B7002050AC39428E50AF8
:1022E100940040C00DBD00010CED64084C70B0E4D9
:1022F100F50AF50BC3E50A9400502DE4F50CF50D34
:10230100E51CFF122F06AF1D8FC7122F06050DE525
:102311000D7002050CC394F0E50C940040E2050B2E
:0D232100E50B7002050A80CCE4F5A9D2A0FE
:01232E00228C
:1026230012206EC2A0D2B17FF8122F01E4FD7FFF0A
:10263300122F067FFF122F060DBD00010CED64EE75
:102643004C70EBE4FF122F067F1F122F06E4FBFAF8
:102653007FF8122F01E4FCFD122EFF0DBD00010CCB
:10266300ED64EE4C70F2E4FF122F067F1F122F066B
:102673000BBB00010ABA01D8BB3ED57FF8122F016C
:10268300E4FCFD7FFF122F067FFF122F060DBD0016
:10269300010CED64EE4C70EBE4FF122F067F1F126A
:0426A3002F06D2A08C
:0126A7002210
:021F01008F0A45
:101F030075A90312206EC2A0D2B1E475162C751503
:101F130001F514F513AF0AFDFEAB16AA15A914A813
:101F23001312126CEF2401F50EE43EF50DE43DF5BA
:101F33000CE43CF50BE50E2516F512E50D3515F50C
:101F430011E50C3514F510E50B3513F50FAF12AE93
:101F530011AD10AC0FAB0EAA0DA90CA80BC3121236
:101F6300BB504FAF0EAE0DAD0CAC0B1229F9E4FB19
:101F7300FAC3EA9402502474002BF58274003AF5F4
:101F830083E0FF74012BF58274003AF583E0FD12C0
:101F9300302F74022BFBE43AFA80D6E50E2401F5C8
:101FA3000EE4350DF50DE4350CF50CE4350BF50BAE
:071FB300809BD2A0E4F5A918
:011FBA002204
:1014F50012206EC2A0D2B1E4FDE4F53BF53CE4F563
:10150500A0F5C7C297D297053CE53C7002053B6440
:1015150010453B70E9E4F53BF53CE4F53DF53EE56A
:101525003CAE3B7803C333CE33CED8F9122F00053A
:101535003EE53E7002053DC39407E53D940040DF5E
:10154500053CE53C7002053BC39420E53B94004017
:10155500C90DBD00010CED64504C709DE4FCFDE42B
:10156500F53BF53CE4F5A0F5C7C297D297053CE5F8
:101575003C7002053B6410453B70E9E4F53BF53CE6
:10158500E4F53DF53EE53C25E0FFE53B33FEEF7830
:1015950003CEC313CE13D8F9FF122F06E53C25E081
:1015A500FFE53B33FEEF7805C333CE33CED8F9FFE5
:1015B500122F06053EE53E7002053DC39407E53D45
:1015C500940040C1053CE53C7002053BC39420E511
:1015D5003B940040AB0DBD00010CED64504C600325
:1015E500021564E4FCFDE4F53BF53CE4F5A0F5C724
:1015F500C297D297053CE53C7002053B6410453B1C
:1016050070E9E4F53BF53CE4F53DF53EE4FF122FCA
:1016150006AF3C122F06053EE53E7002053DC3941C
:1016250007E53D940040E5053CE53C7002053BC3FC
:101635009420E53B940040CF0DBD00010CED6450B6
:101645004C70A3E4FCFDE4F53BF53CE4F5A0F5C7DF
:10165500C297D297053CE53C7002053B6410453BBB
:1016650070E9E4F53BF53CE4F53DF53EE53C25E068
:10167500FFE53B33FEEF7803CEC313CE13D8F9FF56
:10168500AE3CEE33333354F84FFF122F06AF3CEF29
:1016950025E0FEC43354E04FFF122F06053EE53E1C
:1016A5007002053DC39407E53D940040BF053CE548
:1016B5003C7002053BC39420E53B940040A90DBD59
:0E16C50000010CED64504C600302164BD2A0E5
:0116D30022F4
:10195C0012206EC2A0D2B1E4FDC3EC94005020E47E
:10196C00F543F544122EFF0544E54470020543C3CC
:10197C0094F0E543940040EC0DBD00010C80DAE4DA
:10198C00FCFDE4FBFAE4F543F544EDAE047803C347
:10199C0033CE33CED8F9122F000544E5447002053E
:1019AC0043C3943CE543940040E0E4F543F544ED37
:1019BC0025E0FFEC33FEEF7803CEC313CE13D8F93A
:1019CC00FF122F06ED25E0FFEC33FEEF7805C33355
:1019DC00CE33CED8F9FF122F060544E5447002052C
:1019EC0043C3943CE543940040C5E4F543F544E41B
:1019FC00FF122F06AF05122F060544E544700205B1
:101A0C0043C3943CE543940040E5E4F543F544EDD1
:101A1C0025E0FFEC33FEEF7803CEC313CE13D8F9D9
:101A2C00FFAE05EE33333354F84FFF122F06ED257E
:101A3C00E0C43354E04DFF122F060544E544700218
:101A4C000543C3943CE543940040C40BBB00010A1E
:101A5C00EB640A4A60030219910DBD00010CED64A0
:091A6C00204C600302198ED2A087
:011A7500224E
:1028A70012206EC2A0D2B1E4FDC3EC94005020E424
:1028B700F545F546122EFF0546E54670020545C368
:1028C70094F0E545940040EC0DBD00010C80DAE47E
:1028D700FCFDE4FBFAE4F545F546EDAE047803C3E9
:1028E70033CE33CED8F9122F000546E546700205E0
:1028F70045C394F0E545940040E00BBB00010AEBAB
:10290700640A4A70D00DBD00010CED64204C70C202
:02291700D2A04C
:01291900229B
:10272D0012206EC2A0D2B1E4FDC3EC94005020E49F
:10273D00F547F548122EFF0548E54870020547C3D9
:10274D0094F0E547940040EC0DBD00010C80DAE4F7
:10275D00FCFDE4FBFAE4F547F548EDAE047803CE55
:10276D00C313CE13D8F9FF122F06EDAE047805C3AF
:10277D0033CE33CED8F9FF122F060548E548700247
:10278D000547C394F0E547940040CF0BBB00010A09
:10279D00EB64054A70BF0DBD00010CED64404C703B
:0327AD00B1D2A006
:0127B0002206
:102B1E0012206EC2A0D2B1E4FDC3EC94005018E4B2
:102B2E00F583F582122EFFA3E58264F0458370F4DF
:102B3E000DBD00010C80E2E4FCFDE4FBFAE4F5833C
:102B4E00F582E4FF122F06AF05122F06A3E582646D
:102B5E00F0458370ED0BBB00010AEB640A4A70DD91
:0D2B6E000DBD00010CED64204C70CFD2A015
:012B7B002237
:1025080012206EC2A0D2B1E4FDC3EC94005020E4C6
:10251800F549F54A122EFF054AE54A70020549C3F6
:1025280094F0E549940040EC0DBD00010C80DAE41C
:10253800FCFDE4FBFAE4F549F54AED25E0FFEC3350
:10254800FEEF7803CEC313CE13D8F9FFAE05EE33F2
:10255800333354F84FFF122F06ED25E0C43354E00F
:102568004DFF122F06054AE54A70020549C394F04B
:10257800E549940040C40BBB00010AEB640A4A70A9
:0E258800B40DBD00010CED64204C70A6D2A075
:012596002222
:1026A80012206EC2A0D2B1E4F50AF50BE4FDFCC31A
:1026B800EC9400500A122EFF0DBD00010C80F0E4CE
:1026C800FCFDE4FBFAEDAE047802C333CE33CED87A
:1026D800F97803CEC313CE13D8F9FFED25E0FE3306
:1026E800333354F84FFF122F06ED25E025E0C433AD
:1026F80054E0FFED25E04FFF122F060BBB00010A47
:10270800EB640F4A70BF0DBD00010CED64104C70F6
:10271800B1050BE50B7002050AC39440E50A940164
:04272800408AD2A071
:01272C00228A
:10282F0012206EC2A0D2B1E4F54BF54CE4FDFC12C0
:10283F002EFF0DBD00010CED64104C70F2E4FCFD99
:10284F00E4FBFAED25E0FFEC33FEEF7803CEC31384
:10285F00CE13D8F9FFAE05EE33333354F84FFF12D2
:10286F002F06ED25E0C43354E04DFF122F060BBBAE
:10287F0000010AEB64074A70CA0DBD00010CED643C
:10288F00204C70BC054CE54C7002054BC39440E5E1
:07289F004B94014097D2A009
:0128A600220F
:100C3F0012206EC2A0D2B1E4FDE4F53FF540122EB2
:100C4F00FF0540E5407002053FC39410E53F940057
:100C5F0040ECE4F53FF540E4F541F542E540AE3FA9
:100C6F007803C333CE33CED8F9122F000542E542B5
:100C7F0070020541C39407E541940040DF0540E54C
:100C8F00407002053FC39420E53F940040C90DBD5D
:100C9F0000010CED64354C70A0E4FCFD753F007550
:100CAF004020E4F541F542E54024FFFFE53F34FFE6
:100CBF00FEEF7803C333CE33CED8F9122F0005429F
:100CCF00E54270020541C39407E541940040D8E521
:100CDF004015407002153FD3E5409400E53F940066
:100CEF0050C0E4F53FF540122EFF0540E54070027D
:100CFF00053FC39410E53F940040EC0DBD00010C7F
:100D0F00ED64354C7096E4FCFDE4F53FF540122E92
:100D1F00FF0540E5407002053FC39430E53F940066
:100D2F0040ECE4F53FF540E4F541F542E540AE3FD8
:100D3F007803CEC313CE13D8F9FF122F06E540AEBA
:100D4F003F7805C333CE33CED8F9FF122F060542B5
:100D5F00E54270020541C39403E541940040CD057F
:100D6F0040E5407002053FC39440E53F940040B713
:100D7F000DBD00010CED64354C708EE4FCFD753F2C
:100D8F0000754040E4F541F542E54024FFFFE53FA3
:100D9F0034FFFEEF7803CEC313CE13D8F9FF122F13
:100DAF0006E54024FFFFE53F34FFFEEF7805C33330
:100DBF00CE33CED8F9FF122F060542E54270020559
:100DCF0041C39403E541940040BFE54015407002D4
:100DDF00153FD3E5409400E53F940050A7E4F53F5D
:100DEF00F540122EFF0540E5407002053FC39430D9
:100DFF00E53F940040EC0DBD00010CED64354C60F7
:100E0F0003020D8DE4FCFDE4F53FF540122EFF05C6
:100E1F0040E5407002053FC39410E53F940040EC5D
:100E2F00E4F53FF540E4F541F542E4FF122F06AF3C
:100E3F0040122F060542E54270020541C39407E5B3
:100E4F0041940040E50540E5407002053FC3942002
:100E5F00E53F940040CF0DBD00010CED64354C70A3
:100E6F00A6E4FCFD753F00754020E4F541F542E432
:100E7F00FF122F06E54014FF122F060542E54270C0
:100E8F00020541C39407E541940040E3E540154056
:100E9F007002153FD3E5409400E53F940050CBE43A
:100EAF00F53FF540122EFF0540E5407002053FC3A8
:100EBF009410E53F940040EC0DBD00010CED64373C
:050ECF004C70A1D2A04F
:010ED40022FB
:1000030012206EC2A0D2B1E4FD900000AF05122F02
:1000130006AF05122F06EDF4FF122F06EDF4FF12C3
:100023002F06A3E5826478458370E16305FF6304CB
:0E003300FF0BBB00010ABA01D0BB40CDD2A02A
:01004100229C
:101E4100754D00754E5012206EC2A0D2B1E4FDC393
:101E5100ED954EEC954D501FE4F583F5827F7B1295
:101E61002F067FEF122F06A3E58264F0458370ED04
:101E71000DBD00010C80D8E4FCFDE54E25E0FFE539
:101E81004D33FEC3ED9FEC9E5048E4F583F5827F10
:101E91007B122F067FEF122F06A3E582643C458358
:101EA10070EDE4F583F582122EFFA3E58264784597
:101EB1008370F4E4F583F5827F7B122F067FEF12A6
:101EC1002F06A3E582643C458370ED0DBD00010C36
:101ED10080A8E4FCFDC3ED954EEC954D501FE4F553
:101EE10083F5827F7B122F067FEF122F06A3E582F7
:0F1EF10064F0458370ED0DBD00010C80D8D2A0C8
:011F000022BE
:102FA100AD07AC06C2A0D2B1AF04122F06AF051215
:052FB1002F06D2A02252
:102B7C00EFC3942050047F5F8050EFC39420400C2F
:102B8C00EFD3942F5006EF2428FF803EEFC39430F0
:102B9C00400CEFD39439500674D02FFF802CEFC328
:102BAC00943A400CEFD394405006EF241EFF801A49
:102BBC00EFC39441400CEFD3947E5006EF24C9FF31
:0B2BCC008008EFD3947E40027F5F2260
:10232F00FDE43515FC851923851A24851B25851C8D
:05233F0026AB18AA17EF
:062344008F1EAF05AE0480
:10234A00EB240FFDE43A154F154FA84FF608A605E2
:10235A00EF2407FDE43EFC122085AF1E7E00D3EF7A
:10236A00945FEE940040027F5FEFC4F8540FC86890
:10237A00FFEEC454F048FE7528FF752900752A9EA1
:10238A00EF252AF52AEE3529F529E4F527AB2805A4
:10239A002AE52AAA297002052914F91211FEFBE47A
:1023AA00FAEBA802088002C333D8FC30E706AF2450
:1023BA00AE238004AF26AE25122FA10ABA08E20581
:0823CA0027E527C3941040C56C
:0123D20022E8
:1023D3008B138A1489158C168D17AB13AA14A915A0
:1023E3001211FE7003D38001C34066AB130515E5DC
:1023F30015AA147002051414F91211FEFF122B7C96
:10240300851A23851B24851C25851D26AB19AA182F
:10241300AD17AC16122344D3E51794E7E5169400E1
:102423004012E4F516F51774102519F519E435185B
:10243300F518800B74082517F517E43516F516D330
:10244300E519942FE51894014090E4F518F51980E7
:1024530089154F154FA84F760108763F7A007B0008
:0B2463007C007DEF7E007F00022085E2
:10246E008E138F148C158D168A178B18D3E5169430
:10247E00CFE515940040067515007516CFD3E518F7
:10248E00942FE5179401400CE51824EFF518E51785
:10249E0034FFF517E513C4540FFF851923851A244D
:1024AE00851B25851C26AB18AA17AD16AC15122355
:1024BE0044E513540FFFE516240812232FE513C429
:1024CE00F854F0C8E514C4540F48540FFFE5162411
:1024DE001012232FE514540FFFE516241812232F84
:1024EE00154F154FA84F760108763F7A007B007C7A
:0A24FE00007DEF7E007F00022085C4
:102F8B00C2A0D2B17FF47E01122EBEAFA0ADC7D2CC
:052F9B00A0EFFEEDFFB8
:012FA000220E
:102D6F001201100100000040C41000000000010219
:102D7F0003010902200001010080FA09040000028A
:102D8F00FF00000007050202400000070582024015
:0A2D9F000000040309040100000015
:10182500900200EEF0A3EFF0900204EBF0A3EAF0D3
:10183500A3E9F0E4900791F0900791E0FF902D6FF8
:1018450093FE74402FF582E43407F583EEF090079C
:1018550091E004F0E0B412E0E4900791F090079174
:10186500E0FF902D8193FE74522FF582E43407F545
:1018750083EEF0900791E004F0E0B420E0900200E0
:10188500E0FEA3E0900748F0EEA3F0A3EDF0ECA393
:10189500F090077274FFF0A3742DF0A374A1F0907B
:1018A5000204E0F9A3E0FAA3E0900775C9F0A3EA02
:1018B500F0A3E9F0900207E0F9A3E0FAA3E09007AE
:1018C50078C9F0A3EAF0A3E9F090020AE0F9A3E0F1
:1018D500FAA3E090077BC9F0A3EAF0A3E9F0900230
:1018E5000DE0FFC394FA500590075AEFF090020EF1
:1018F500E0900759F090020FE0FEA3E090074CF04E
:10190500EEA3F0E59620E7FB759601759708E59639
:1019150020E7FB75960775970FE59620E7FB75960B
:101925000975970EE59620E7FB75960B7597077574
:10193500D7E012300EE4900793F0900792F09007ED
:1019450094F0900786F043E602D2AFE59620E7FBD8
:071955007596017597012250
:102E6C009007867402F0E59620E7FB75960175973E
:102E7C0001E490078EF0A37403F0A3F0E4900793A1
:072E8C00F090079204F02210
:100ED500E59620E7FB75960EE4F597E59620E7FB8A
:100EE500759691E59620E7FB90079EE597F0E0FF64
:100EF50030E210E59620E7FB759611E4F59790072B
:100F05008EF022EF30E410E59620E7FB759611751B
:100F15009780E490078EF090078EE060030210063C
:100F250090079EE020E0030210067596204396C0C8
:100F3500E4900791F0E59620E7FB900791E0247E89
:100F4500F582E43407F583E597F0900791E004F026
:100F5500E0B407E1E59620E7FBE4F596900791E01C
:100F6500247EF582E43407F583E597F0900781E068
:100F7500FE900780E07C002400FFEC3E900795F092
:100F8500A3EFF0900785E0FE900784E02400FFECD6
:100F95003E900797F0A3EFF090077FE0B40C005068
:100FA5005D900FADF8282873020FD1020FD6020FFE
:100FB500DB020FE0021003020FE5020FEA02100345
:100FC500020FEF020FF4020FF9020FFE12291A8029
:100FD50030122C31802B121D748026122C89802111
:100FE500122F1F801C1221208017122D288012120B
:100FF5002BD7800D122E938008122FB68003122F47
:101005003F90078EE06401600302110790079E740C
:1010150002F0C390078DE0944090078CE094004067
:1010250061E59620E7FB759620E4900791F090071F
:1010350091E0FFC394405022900787E0FBA3E0FABC
:10104500A3E0F98F82758300121217F597E59620B4
:10105500E7FB900791E004F080D4900788E475F0F1
:101065004012125690078DE024C0F090078CE034B2
:10107500FFF090078BE02440F090078AE03400F001
:101085008052E59620E7FB759620E4900791F09055
:101095000791E0FFD390078DE09F90078CE09400C7
:1010A5004026900787E0FBA3E0FAA3E0F9900791BB
:1010B500E0F582758300121217F597E59620E7FB98
:1010C500900791E004F080C790079EE04408F0E4A3
:1010D50090078EF0900797E0FEA3E0FF90078AE067
:1010E500B50611A3E0B5070C90079EE04408F0E4AF
:1010F50090078EF0E59620E7FB75961190079EE028
:03110500F5972239
:102F3F00E59620E7FB75960EE4F597E59620E7FBFF
:0D2F4F0075961175972090078E7404F0227E
:10291A0090077EE0247F60071460062402704880D6
:10292A002D90078FE0B40309900782E0B402028079
:10293A000E900790E0B40316900782E0B4820F90DD
:10294A00078774FFF0A3742DF0A374A5800D900778
:10295A008774FFF0A3742DF0A374A7F090078CE49A
:10296A00F0A37402F08003122F3F90078EE06404F4
:10297A006010122FB690078E7401F0E490078AF067
:03298A00A3F02295
:102C3100900780E07041900782E0B4021DE5962084
:102C4100E7FB75960E759702E59620E7FB759614DE
:102C5100759780E490078FF08020E59620E7FB755B
:102C6100960E759702E59620E7FB759611759740CC
:102C7100E4900790F08003122F3FE59620E7FB7563
:082C8100960EE4F597022FB650
:101D7400900796E020E003021E0A900794E030E00A
:101D84000854FEF04402F08007900794E054FDF0FC
:101D9400E59620E7FB75960E759702E59620E7FB1E
:101DA400759614759710E59620E7FB75961175974F
:101DB40008E59620E7FB759694E59620E7FB9007E7
:101DC4009DE597F0E020E4E9E59620E7FB7596149D
:101DD400759710E59620E7FB759691E59620E7FB4D
:101DE40090079DE597F0E020E3E9E59620E7FB7591
:101DF40096117597089007927408F0900794E0FF85
:101E040030E1034401F0900795E0FCA3E0FD30E1EC
:101E14000D9007867406F0900792E04410F0ED30C0
:101E2400E20D9007867404F0900792E04420F0E5F8
:0D1E34009620E7FB75960EE4F597022FB699
:102C8900900780E07040900782E0B4021BE596202F
:102C9900E7FB75960E759702E59620E7FB75961486
:102CA90075972090078F8019E59620E7FB75960E9A
:102CB900759702E59620E7FB7596117597109007B1
:102CC900907403F08003122F3FE59620E7FB759679
:072CD9000EE4F597022FB68F
:102F1F00E59620E7FBE4F596900780E0FFF597EF45
:102F2F0090078660057403F080037402F0022FB6D9
:10212000900781E024FE601B14603B2402706990DC
:1021300007877401F0A37407F0A37440F090074080
:10214000E0804A9007877401F0A37407F0A37452EB
:10215000F0900755E0FE900754E07C002400FFEC6F
:102160003E90078C802C900780E075F003A42472C9
:10217000F582E43407F583E0FBA3E0FAA3E0F990ED
:102180000787EBF0A3EAF0A3E9F01211FEFF900736
:102190008CE4F0A3EFF08003122F3F90078CE0FE59
:1021A000A3E0FF900797E0FCA3E0FDC39FEC9E50E7
:1021B0000890078CECF0A3EDF090078EE0640460CB
:1021C00010122FB690078E7401F0E490078AF0A3E6
:0221D000F022FB
:102D2800900786E0FFB40414A374FFF0A3742DF099
:102D3800A374A5F090078CE4F0A304F0EFB4031695
:102D480090078774FFF0A3742DF0A374A7F0900781
:102D58008CE4F0A304F0122FB690078E7401F0E40F
:072D680090078AF0A3F0229E
:102BD700900780E0D394004042900792E04440F091
:102BE7009007867404F0E490078FF0A3F0E5962031
:102BF700E7FB75960E759702E59620E7FB7596122B
:102C0700759784E59620E7FB759615759780E59689
:102C170020E7FB75960EE4F597800C900786740302
:0A2C2700F090078FF0A3F0022FB623
:102E930090078774FFF0A3742DF0A374A7F0900735
:102EA3008CE4F0A304F0122FB690078E7401F0E4C3
:072EB30090078AF0A3F02252
:102FB60090078EE06404600BE59620E7FB7596119A
:042FC6007597402299
:030043000216D4CE
:1016D400C0E0C0F0C083C082C0D075D000C000C0DC
:1016E40001C002C003C004C005C006C0079007A122
:1016F400E596F0E59620E7FB75968EE59620E7FBE8
:101704009007A2E597F0E59620E7FB759686E596A7
:1017140020E7FB900799E597F0E030E30BE596208E
:10172400E7FB75960B759707900799E030E2031273
:101734002E6C900799E030E014900786E0FF640473
:101744006004EFB40607900792E04480F0E5962029
:10175400E7FB759682E59620E7FB900799E597F0FD
:10176400E030E003120ED5900799E030E22AE596C6
:1017740020E7FB75960E759702E59620E7FB7596B4
:1017840091E59620E7FB90079AE597F0E054037003
:1017940007900792E04402F0E59620E7FB759684F3
:1017A400E59620E7FB900799E597F0E030E229E51C
:1017B4009620E7FB75960E759702E59620E7FB7574
:1017C4009694E59620E7FB90079AE597F0E030E0E1
:1017D40007900792E04404F0E59620E7FB75960E27
:1017E4009007A2E0F597E59620E7FB9007A1E59620
:1017F400F0E59620E7FB900794E030E0099007922B
:10180400E06003122EDDD007D006D005D004D0034B
:10181400D002D001D000D0D0D082D083D0F0D0E09C
:011824003291
:102DA900E5B964E0602E53A90FC0A943B280E5A933
:102DB9005407D394014003E4F5A9E4F5B943B98074
:102DC900E4D5E0FD43B9C0E5B930E5FBD0E0B40294
:082DD9000343A90253A90F22D4
:102E180053D7BF43C910E5A95402900791F043B2B4
:102E28008075A910E4F5B943B22000122DA99007C6
:0B2E380091E042A953C9EF43D74022AC
:0E300000900792E0FFE4F022900792E0FF229A
:1021D200900786E0B40606EDD3944040037F0022C8
:1021E200E59620E7FB75960E759702E59620E7FBCC
:1021F200759694E59620E7FB90079CE597F0E02022
:10220200E00302227EE59620E7FB759696E596208E
:10221200E7FB900793E597F0E0FFEDC39F5006AE12
:1022220005AF068000900793EFF053E6FDE5962098
:10223200E7FB7596E2900793E06025FEEB600630BF
:10224200E70F7F0022E59620E7FBA79709DEF680DD
:102252000F89828A83E59620E7FBE597F0A3DEF5F6
:10226200E59620E7FBE4F596E59620E7FB759614E4
:0F227200E4F59743E602900793E0FF227F0022F6
:101A7600900786E0B4060DED4C6009D3ED9400ECBA
:101A860094104004E4FEFF2253E6FDE490079FF025
:101A9600A3F090079BF089828A83C083C082900757
:101AA6009BE030E003021B77E59620E7FB75960E78
:101AB600759702E59620E7FB759691E59620E7FB7C
:101AC60090079BE597F0E030E020E59620E7FB7570
:101AD600960EE4F597E59620E7FB759691E5962038
:101AE600E7FB90079BE597F080B4C3ED9440EC9438
:101AF600009007A0E0401B2440F090079FE03400D0
:101B0600F074C02DFD74FF3CFCE490079BF0784018
:101B160080132DF090079FE03CF090079B7401F036
:101B2600A805E4FCFDE59620E7FB759622D082D059
:101B360083E8602BEB601130E71AE59620E7FBE4BB
:101B460093F597A3D8F48017E59620E7FB879709C6
:101B5600D8F6800BE59620E7FBE0F597A3D8F5C00D
:101B660083C082E59620E7FB759611759701021AE8
:101B7600A4D082D08343E60290079FE0FEA3E0FF55
:011B8600223C
:102F5C00900794E04401F0900792E0600BE5962016
:092F6C00E7FB75960B75970F2227
:0C300E00E59620E7FB75960F7597892268
:102EDD00D007D007D007D006D005D004D003D0023C
:102EED00D001D000D0D0D082D083D0F0D0E002007D
:022EFD008B2226
:030000000225973F
:0C259700787FE4F6D8FD75814F0225DE48
:10110800E709F608DFFA8046E709F208DFFA803EC9
:1011180088828C83E709F0A3DFFA8032E309F608B6
:10112800DFFA8078E309F208DFFA807088828C831E
:10113800E309F0A3DFFA806489828A83E0A3F608D2
:10114800DFFA805889828A83E0A3F208DFFA804CAC
:1011580080D280FA80C680D4806980F28033801083
:1011680080A680EA809A80A880DA80E280CA8033EC
:1011780089828A83ECFAE493A3C8C582C8CCC58364
:10118800CCF0A3C8C582C8CCC583CCDFE9DEE78034
:101198000D89828A83E493A3F608DFF9ECFAA9F0B3
:1011A800EDFB2289828A83ECFAE0A3C8C582C8CC09
:1011B800C583CCF0A3C8C582C8CCC583CCDFEADE22
:1011C800E880DB89828A83E493A3F208DFF980CC84
:1011D80088F0EF60010E4E60C388F0ED2402B4047D
:1011E8000050B9F582EB2402B4040050AF23234524
:0611F800822390115873E0
:1011FE00BB010689828A83E0225002E722BBFE02EF
:09120E00E32289828A83E4932221
:10121700BB010CE58229F582E5833AF583E022508C
:1012270006E92582F8E622BBFE06E92582F8E222D6
:0D123700E58229F582E5833AF583E49322F0
:10124400EF8DF0A4A8F0CF8CF0A428CE8DF0A42EBE
:02125400FE2278
:10125600C5F0F8A3E028F0C5F0F8E5821582700223
:061266001583E038F022C0
:10126C00E88FF0A4CC8BF0A42CFCE98EF0A42CFC21
:10127C008AF0EDA42CFCEA8EF0A4CDA8F08BF0A49F
:10128C002DCC3825F0FDE98FF0A42CCD35F0FCEBFE
:10129C008EF0A4FEA9F0EB8FF0A4CFC5F02ECD39C3
:0F12AC00FEE43CFCEAA42DCE35F0FDE43CFC2230
:1012BB00EB9FF5F0EA9E42F0E99D42F0E89C45F089
:0112CB002200
:1012CC00E8600FECC313FCED13FDEE13FEEF13FF00
:0312DC00D8F12224
:1012DF00E8600FEFC333FFEE33FEED33FDEC33FC6D
:0312EF00D8F12211
:1012F2007401FF3395E0FEFDFC080808E6CF2FF6E7
:1013020018E6CE3EF618E6CD3DF618E6CC3CF622BF
:1025A300021C95E493A3F8E493A34003F68001F29D
:1025B30008DFF48029E493A3F85407240CC8C33339
:1025C300C4540F4420C8834004F456800146F6DF08
:1025D300E4800B0102040810204080902E43E47E27
:1025E300019360BCA3FF543F30E509541FFEE493FD
:1025F300A360010ECF54C025E060A840B8E493A3C4
:10260300FAE493A3F8E493A3C8C582C8CAC583CAEE
:10261300F0A3C8C582C8CAC583CADFE9DEE780BEA6
:012E6B000066
:00000001FF
